:100000000002040000000000AE020000AE0200008A
:10001000AE020000AE020000AE020000AE02000020
:10002000AE020000AE020000AE020000AE02000010
:10003000AE020000AA1C0000AE020000AE020000EA
:10004000AE020000AE020000AE020000AE020000F0
:10005000AE020000AE020000AE020000AE020000E0
:10006000AE020000AE020000AE020000AE020000D0
:10007000AE020000AE020000AE020000AE020000C0
:10008000AE020000AE020000AE020000AE020000B0
:10009000AE020000AE020000AE020000AE020000A0
:1000A000AE020000AE020000AE020000AE02000090
:1000B000AE020000AE020000AE020000AE02000080
:1000C000AE020000AE020000AE020000AE02000070
:1000D000AE020000AE020000AE020000AE02000060
:1000E000AE020000AE020000AE020000AE02000050
:1000F000AE020000AE020000AE020000AE02000040
:10010000AE020000AE020000AE020000AE0200002F
:10011000AE020000AE020000AE020000AE0200001F
:10012000AE020000AE020000AE020000AE0200000F
:10013000AE020000AE020000AE020000AE020000FF
:10014000AE020000AE020000AE020000AE020000EF
:10015000AE020000AE020000AE020000AE020000DF
:10016000AE020000AE020000AE020000AE020000CF
:10017000AE020000AE020000AE020000AE020000BF
:10018000AE020000AE020000AE020000AE020000AF
:10019000AE020000AE020000AE020000AE0200009F
:1001A000AE020000AE020000AE020000AE0200008F
:1001B000AE020000AE020000AE020000AE0200007F
:1001C000AE020000AE020000AE020000AE0200006F
:1001D000AE020000AE020000AE020000AE0200005F
:1001E000AE020000AE020000AE020000AE0200004F
:1001F000AE020000AE020000AE020000AE0200003F
:10020800AE020000AE020000AE020000AE02000026
:10021800AE020000AE020000AE020000AE02000016
:10022800AE020000AE020000AE020000AA1C0000F0
:10023800AE020000AE020000AE020000AE020000F6
:10024800AE020000AE020000AE020000AE020000E6
:10025800AE020000AE020000AE020000AE020000D6
:10026800AE020000AE020000AE020000AE020000C6
:10027800AE020000AE020000AE020000AE020000B6
:10028800AE020000AE020000AE020000AE020000A6
:10029800AE020000AE020000AE020000AE02000096
:1002A800AE020000AE020000AE020000AE02000086
:1002B800AE020000AE020000AE020000AE02000076
:1002C800AE020000AE020000AE020000AE02000066
:1002D800AE020000AE020000AE020000AE02000056
:1002E800AE020000AE020000AE020000AE02000046
:1002F800AE020000AE020000AE020000AE02000036
:10030800AE020000AE020000AE020000AE02000025
:10031800AE020000AE020000AE020000AE02000015
:10032800AE020000AE020000AE020000AE02000005
:10033800AE020000AE020000AE020000AE020000F5
:10034800AE020000AE020000AE020000AE020000E5
:10035800AE020000AE020000AE020000AE020000D5
:10036800AE020000AE020000AE020000AE020000C5
:10037800AE020000AE020000AE020000AE020000B5
:10038800AE020000AE020000AE020000AE020000A5
:10039800AE020000AE020000AE020000AE02000095
:1003A800AE020000AE020000AE020000AE02000085
:1003B800AE020000AE020000AE020000AE02000075
:1003C800AE020000AE020000AE020000AE02000065
:1003D800AE020000AE020000AE020000AE02000055
:1003E800AE020000AE020000AE020000AE02000045
:1003F800AE020000AE0200000FCC21000E7F2200EA
:100408000E01880000000000000020000000E0004D
:100418000200320000012000200288000C000700C2
:1004280040132200010020001100070000002000F6
:100438000000E0000200320000000200000000009E
:10044800D01F0200000000000040DA000000FE009B
:100458004440A900600420000000E00003003200CE
:1004680000002000A00188004440A8000000060009
:1004780091018800800078000000EB00150037002B
:10048800E280400032A0B4009101BA00E28040004E
:1004980032A0B4009102BA00E280400032A0B40059
:1004A8000002EB00472BDE00F507B200602CE100EC
:1004B80004003A000059EB008301E900FDFF3E000B
:1004C800040037006128E100010032000082EB00DF
:1004D800040007001101BA000200E000E8FF3A003A
:1004E800000006003159BA008301E9000C0032000F
:1004F8002159BA008301E900080032000400E00035
:1005080003003A00E280400032A0B400F5FF370053
:1005180011D9BA008301E900FAFF3A008100E80026
:10052800E180400032A0B40000000600601B040017
:1005380000000000061E040000000000161F040052
:1005480000000000BA1F040000000000A00C040016
:10055800000000000040DA000000FE000000FA0081
:1005680021E2A9009560A9009580A9008560A900ED
:100578008580A9000080FA00000006000200FA0049
:10058800000F78008560A9008580A9001E02780008
:100598000442780067426200674262006742620074
:1005A8000482FB00670262004C22DD0046058000E1
:1005B800F5FF280085026300048272004405880064
:1005C800040720001E0262004422DE000442780074
:1005D800674262000482FB006702620056058000E1
:1005E80085FF2F008502630004827200540588008D
:1005F8009E027800688262004322DE00044278008E
:10060800614262000482FB00610262004B22DD004D
:10061800A6048000F57F2F00850263000482720023
:10062800A4048800040820001E0262004722DE009D
:1006380004427800614262000482FB0061026200A9
:100648004C22DD00A6048000F5FF2E008502630021
:1006580004827200A40488000080FA0000000600EA
:100668000000FA0014118000044278006142620020
:10067800044078000080FA00000006000800FA0034
:100688001007980021079800320798003E02900052
:10069800441188001E029000041188002E02900068
:1006A800141188000200370034118000044F7800CC
:1006B8001411800061026200E00F5200FAFF3A0054
:1006C8008560A9000080FA00000006000000FA001A
:1006D8000411800066026200E60F520002003A0030
:1006E800341180000300370035118000F40F20001A
:1006F80004826200040078000080FA00000006000E
:100708000002780002003700315A78000201E9003F
:10071800E00F5100FCFF3A0000000600436C0000A7
:100728006176000069650000725400006173000082
:100738006B000000506F000072740000450000005C
:10074800554100005254000052000000554100007D
:10075800525400004F430000000000001111000037
:1007680022220000333300004444000055550000A5
:100778006666000077770000888800009999000075
:10078800AAAA0000BBBB0000CCCC0000DDDD000045
:10079800EEEE0000CECD0000ACAB000049440000F6
:1007A8004C450000000000001600FA0030079800D1
:1007B800410798005207980063079800740798004B
:1007C800050F9800160F9800270F98009E089000B4
:1007D8005E009000FE0407000002780014079800ED
:1007E8001E029000E00F5200510032001E029000DD
:1007F800C40A9000250798001E029000C40A9000C1
:100808005E0290000402E900040242008482420071
:100818001E029000750A98005E029000AE099000D2
:100828007E019000CE0090001E0090004D0407004D
:100838006E019000BE0090002E009000B10B0700E2
:1008480000027800840278001E029000050A7800F1
:100858000E0A9000E00F5200030032000E0A9000CA
:100868009E029000050A7800210C070034E38000FE
:100878000402E80034E3880024E08000E00F52001E
:1008880007003A001E02900024E0880034E380004C
:10089800E10F52000C003A006C0407000A00370010
:1008A80064E38000E00F520007003A0024E0800073
:1008B800B40A90007E029000848F520002003E002D
:1008C8009E02900025E08800A4E380000402E8006E
:1008D800A4E388001E029000B40A900054E380004C
:1008E800848F5200030036001E029000340A9000E4
:1008F80054E388001E0290000483E8001E02900062
:10090800340A90006A22B9008402780064C0210089
:10091800048242008600780004007800440C070036
:1009280014002000040F7800FB0B070002003700BA
:100938000082EB00040F78001E027800E10F5200DD
:100948000B003A0064E38000E00F52000800320018
:1009580024E08000B40A90007E029000848F520048
:1009680003003100E4200200000000000000000045
:100978001E027800040078000080FA0000000600DB
:100988000400FA0010079800D90B07001E02900017
:10099800E00F520002003A0024E080000100370016
:1009A8001E029000040F78001E82E8000400780000
:1009B8006F0C07001E027800240A9000E00F520016
:1009C800040032009E0278006C8242000400780025
:1009D800670C07001E82E8008400780000C521002B
:1009E800130C0700D4E280000402E800D4E2880077
:1009F800A4E380000402E800A4E38800C60B070013
:100A080064E38000E00F52000B00320024E0800015
:100A18009E027800848F520004003A00E42002000D
:100A2800000000000000000003003700B00B0700C2
:100A380093040700B80B07000080FA0000000600C6
:100A48000C00FA0040079800510798000002EB00DC
:100A5800040F7800AE01070044E3800014079800F3
:100A68004E029000940278005E02900004824200D8
:100A7800240798004E029000940278001E0290000D
:100A8800848F52000C0036004E02900094027800C9
:100A98002E029000848F520012003600AE029000A1
:100AA8001E029000848F52000E00360014002000B1
:100AB800040F78000B0037004E0290009402780073
:100AC8002E029000848F520004003E00AE02900077
:100AD8001E029000848F520002003600140020008D
:100AE800040F78004E029000AE029000050A7800CC
:100AF8001E027800E00F52000600320024E0800059
:100B08000482E80004007800190C07002E00900009
:100B180011040700840107000002780034079800D8
:100B28003E029000E00F520003003A00E420020069
:100B380000000000000000000080FA00000006002D
:100B48000600FA00200798000002EB00040F780066
:100B58002E029000E00F52000E0032006C010700D8
:100B680045E380002E02900004824200140798009A
:100B780024E080000482E80004007800FC0B0700F1
:100B88001E009000F40307006701070000027800C8
:100B9800040F78001E027800E00F520003003A00AC
:100BA800E420020000000000000000000080FA00BD
:100BB800000006000600FA00200798004C0B07000A
:100BC8002E029000E00F520002003A0024E080005C
:100BD800010037002E029000040F78001E027800F2
:100BE800B40A9000150798004B0B07001E029000EE
:100BF800040078000080FA00000006000C00FA00EB
:100C080040079800510798000002EB00040F780095
:100C18005E029000E30F520002003600340020000C
:100C280054079800320B07004E029000E00F520064
:100C380002003A0024E08000010037004E029000D4
:100C4800140798001E029000B40A90002507980027
:100C5800AE0290005E029000848F52004A0032007B
:100C6800DE0290002E029000848F52000C003600A5
:100C780024E080009E029000848F52000E00320013
:100C880024E08000B40A90005E029000848F520035
:100C980009003E0014002000040F78000600370009
:100CA80024E080009E029000848F520002003A00E7
:100CB80014002000040F78001E029000B40A90006F
:100CC800350798001E029000DE029000350A980051
:100CD8001E02900064029000E00F520004003500EC
:100CE8005E029000E40212001E0290006502980065
:100CF8001E029000540390003E0290006A22B90040
:100D08008402780064C0210004824200840F5300EA
:100D180017003A001E0290000482E80004007800E0
:100D2800930B07001E029000B40A900054E3800061
:100D3800848F5200030036001E029000340A90008F
:100D480054E388001E0290000483E8001E0290000D
:100D5800340A90006A22B9008402780064C0210035
:100D6800048242008600780004007800300B0700F7
:100D78001E027800E10F520003003A00E42002004E
:100D88000000000000000000E30A07000080FA00ED
:100D9800000006000400FA0010079800D40A0700B3
:100DA8001E029000E00F520002003A0024E080008A
:100DB800010037001E029000040F78001E82E80030
:100DC800040078006A0B07001E027800240A9000CD
:100DD800E00F5200040032009E0278006C8242004C
:100DE80004007800620B07001E82E8008400780087
:100DF800C0C521000E0B0700C70A070024E08000C9
:100E08009E027800848F520010003A0064E380004C
:100E1800E00F520004003200E4200200000000004D
:100E2800000000000F003700E5E2800034E3800096
:100E3800848F520003003A000002EB0024E088008F
:100E480008003700960107000600370064E38000B9
:100E5800E00F520003003200A50A070088030700CC
:100E6800AD0A07000080FA00000006000600FA003C
:100E7800200798000002EB00040F78002E02900073
:100E8800140798001E029000D4029000C4C52100E7
:100E9800848F52000B003A001E029000A40A9000B2
:100EA80064C42100848F5200060032001E029000A4
:100EB800240A9000E00F520002003A0014002000BB
:100EC800040F78001E027800040078000080FA0001
:100ED800000006000400FA00100798001E029000A7
:100EE800040F78001E027800E00F5200290032003B
:100EF80024E080009E027800848F52002500320092
:100F08007B0A07001E007800D8FF0700000278005F
:100F1800E10F52001E003A001E82E800040078002B
:100F2800130B07001E027800B40A900054E38000F7
:100F3800848F5200030036001E027800340A9000A5
:100F480054E388001E83E8001E027800340A9000EB
:100F58006A22B9008402780064C021000482420039
:100F68008600780004007800B10A07001E027800A5
:100F7800B40A900024E08000340A9000848F520064
:100F880003003900E4200200000000000000000017
:100F9800610A07000080FA00000006000800FA0055
:100FA800300798000002EB00040F78003E02900022
:100FB800140798000002EB00240798001E00900018
:100FC800AAFF070000027800E10F520028003A004B
:100FD800B4E38000E00F520020003A001E029000A7
:100FE800B40A900024E08000340A9000848F5200F4
:100FF8000200390014002000040F78001E0290003F
:101008000482E80004007800D90A07001E02900054
:10101800B40A900054E38000848F52000300360025
:101028001E029000340A900054E388001E029000CB
:101038000483E8001E029000340A90006A22B90076
:101048008402780064C0210004824200860078008F
:1010580004007800760A0700050037001E02900099
:101068006C0242008400780060C42100700A070006
:101078001E027800040078000080FA0000000600D4
:101088000200FA008003EB000003EB008002EB0093
:101098000002EB008001EB0032072000213D280010
:1010A80000CA2000C0FD070000027800040F780085
:1010B8001E027800E10F520009003A001502800074
:1010C80004022000050272001402880014002000A7
:1010D80064E388000002EB0044E38800D3090700BA
:1010E8000080FA00000006000000FA0015028000E7
:1010F8000402200005027200140288000002EB00BE
:1011080064E38800E10907000080FA000000060097
:101118000000FA00B4E380000402E800B4E38800A9
:101128000080FA00000006000400FA000002EB004C
:10113800040F7800EE090700B4E380000402E90018
:10114800B4E38800B4E38000E00F520045003A00A1
:1011580034E38000E00F52004200320026003700DE
:1011680064E2800034029000140798001E02900088
:101178006C024200040078007D0A07001E029000FD
:101188000482E80004007800790A07001E02900033
:10119800B40A900054E38000848F520003003600A4
:1011A8001E029000340A900054E388001E0290004A
:1011B8000483E8001E029000340A90006A22B900F5
:1011C8008402780064C0210004824200860078000E
:1011D80004007800160A07001E029000B40A900066
:1011E80024E08000340A9000848F52000200390005
:1011F8001400200084E3880034E28000E00F5200ED
:10120800D7FF3A0074E38000E00F52000D0032006F
:10121800090037002F00070000027800E00F520095
:10122800020032001400200084E3880074E3800088
:101238000402E90074E3880074E38000E00F5200C0
:10124800F4FF3A0084E38000E10F520005003A0001
:1012580014002000040F7800E420020000000000C1
:1012680000000000AC0907001E02780004007800A6
:101278000080FA00000006000200FA009C0907003E
:1012880044E38000040F7800A30907001E027800D9
:10129800040078000080FA00000006000400FA004C
:1012A8000002EB00040F780044E380001407980064
:1012B8001E029000040078000080FA00000006007A
:1012C8000000FA0034E38000040078000080FA008F
:1012D800000006000A00FA000002EB00040F780084
:1012E800B4E38000E00F520061003A0044E380005C
:1012F8000402E80044E3880044E3800014079800EF
:101308001E029000E00F52000A003A0015E2800029
:101318002507980024E2800014E288002E0290003D
:1013280024E2880094E380000402E80094E3880043
:1013380053020700E4E580009E029000848F52006B
:101348003F003900010037000000000014E280006F
:1013580014027800E00F520003003A000082EB000C
:10136800E4E588003600370014E28000340290007B
:1013780034029000340798003E02900094029000D6
:10138800450798009E0290004E029000848F5200FC
:10139800030031004E029000E4E588002800370081
:1013A8003E0290000482E80004007800F00907007B
:1013B8003E029000240A9000E00F52000400320020
:1013C8003E0290006C02420004007800E809070021
:1013D8003E029000B40A900054E38000848F5200CB
:1013E800030036003E029000340A900054E388005F
:1013F8003E0290000483E8003E029000340A900008
:101408006A22B9008402780064C021000482420084
:101418008600780004007800850907003E029000E5
:10142800B40A900024E08000340A9000848F5200AF
:10143800C5FF390014002000040F7800C3FF3700EF
:1014480024E08000340A90006A22B90084027800FF
:1014580064C021000482420014027800E10F5200A7
:101468000600360014002000040F7800030037003F
:1014780074E380000402E80074E3880084E38000D9
:10148800E00F52000200320014002000040F780020
:101498001E027800040078000080FA0000000600B0
:1014A8000200FA00B4E38000E00F520003003200AB
:1014B8001400200084E38800270037000002EB00B6
:1014C80084E388000300370054E380000402E90045
:1014D80054E3880054E380006A22B900840278004B
:1014E80064C021000482420014027800E00F520018
:1014F800F5FF320054E380006A22B90084027800C4
:1015080064C02100048F42001E027800140290007B
:10151800940290001E027800150298001E027800BE
:10152800940290001E03780064024300848F5200E6
:1015380005003A001E027800140290009402900000
:101548001E027800150298001E027800140290000E
:101558003402900024E088000080FA0000000600B1
:101568000600FA00100798002107980024E0800080
:101578006C024200840078001E0090004A090700AF
:1015880024E080000482E80004007800780907005D
:101598002E029000E10F420006003A0024E080008D
:1015A8000482E80084007800C0C5210020090700F3
:1015B8000500370045E380002E029000048F4200AA
:1015C8001E007800640107000080FA000000060091
:1015D8000800FA00100798002107980032079800C1
:1015E80024E080002E039000050028008682720007
:1015F8006502980024E080006C02420084007800B4
:101608001E0090000A09070024E080000482E80018
:1016180004007800560907003E029000E10F4200DE
:1016280006003A0024E080000482E8008400780084
:10163800C0C52100FE0807000500370045E380000B
:101648003E029000048F42001E007800420107000D
:101658000080FA00000006000600FA002007980043
:101668002E02900034029000340290001407980073
:101678001E0290006C024200040078003C0907003A
:10168800B4E38000E00F520018003A001E029000F8
:101698000482E80004007800350907001E02900063
:1016A800B40A900054E38000848F5200030036008F
:1016B8001E029000340A900054E388001E02900035
:1016C8000483E8001E029000340A90006A22B900E0
:1016D8008402780064C021000482420086007800F9
:1016E80004007800D2080700050037001E029000A9
:1016F8006C0242008400780060C42100CC08070016
:101708001E029000B40A900024E08000340A900081
:10171800848F52000500360014002000040F780062
:101728001400200084E38800020037000002EB0068
:10173800040F78001E027800040078000080FA0088
:10174800000006000800FA002007980031079800FA
:10175800BE0290000400280004037800050373000B
:10176800860278002E029000050A78002E0290006A
:1017780034029000140798002E009000FC0807001F
:101788001E0290000482E80004007800F8080700B0
:101798001E029000B40A900054E38000848F520027
:1017A800030036001E029000340A900054E38800BB
:1017B8001E0290000483E8001E029000340A900084
:1017C8006A22B9008402780064C0210004824200C1
:1017D8008600780004007800950807001E02900033
:1017E800B40A900024E08000340A9000848F5200EC
:1017F8000500360014002000040F780014002000B3
:1018080084E38800020037000002EB00040F780030
:101818001E027800040078000080FA00000006002C
:101828000200FA00000F780095E380001E0278009D
:10183800050A780045E380001E027800150298002A
:101848000080FA00000006000800FA00200798004F
:10185800310798002608070044E380001407980021
:101868003E02900014027800E10F420003003A00A3
:101878000002EB00040F7800250037002E029000CC
:101888009402780094E38000848F520008003200AC
:101898002E029000940290001E029000848F520045
:1018A80003003E0014002000040F780018003700E1
:1018B8002E029000140290009E0290008482520032
:1018C8003E02900014027800848F52000E0031000E
:1018D8003E029000940278002E02900014039000BB
:1018E8001E02900004025300848242003E029000CF
:1018F800050A78002E009000C9FF07000002EB00DF
:10190800040F78000200370014002000040F78004C
:10191800010807001E027800040078000080FA0021
:10192800000006000000FA001400200084E388008C
:101938000080FA00000006000200FA00000F78009C
:101948006100070034E08000E10F52000300360018
:10195800E42002000000000000000000C8090700A1
:10196800F7FF37000C00FA001007980021079800CD
:101978003207980043079800540798000002EB00CC
:10198800040F78000D0037002E0290001E0242005E
:10199800144278009E0290009E824200FA82420021
:1019A800844A78002E0290001E02420014427800F9
:1019B800E04F5200050032001E0FE8001E027800BA
:1019C800E30F5200F0FF360001003700000000006E
:1019D8009E0290000042EB00D45A98003E0290000C
:1019E800E30F52000200360034002000340798004C
:1019F8001E029000BE029000350A98001E02900058
:101A08000482E80004007800020807001E02900023
:101A18006C02420004007800FE0707001E029000D6
:101A28009E029000450298003E029000E4021200D7
:101A38001E029000650298001E0290009E0290000F
:101A4800150A98000080FA00000006000200FA005B
:101A58000002EB00040F7800080037001E0278002F
:101A68006A22B9008402780064C02100048242001E
:101A780004007800CE0707001E0FE8001E02780059
:101A8800E30F5200F5FF3600E0C22100C807070047
:101A980080C32100C607070060C42100C4070700EF
:101AA80000C52100C2070700C0C52100C007070004
:101AB800E4C2210014E2880084C3210024E28800E3
:101AC8000080FA00000006000400FA001D0037003C
:101AD8008FFD070084E2800004F0A7000402EA00FA
:101AE800040FE9001E0278004F22DE00040F780080
:101AF8008DFD07001E027800E00F520011003A0029
:101B08007B070700B4E280003402900014079800B5
:101B18001E0290000482E800040078001408070000
:101B280034E380000402E90034E38800D4E2800052
:101B38000402E900D4E28800770707001E0090003D
:101B480045000700D4E28000E00F5200E0FF3A00B1
:101B58000080FA00000006000200FA00000F78007A
:101B680024E080009E0278001502980044E380007B
:101B78009E027800848F52000700310024E0800024
:101B88008482E80024E28000850078000400780060
:101B9800C50707000C00370024E080008482E800B5
:101BA80014E280008500780004007800BE07070072
:101BB800E4E580009E027800848F52000200310024
:101BC8001E027800E4E588000080FA0000000600A4
:101BD8000600FA001007980021079800000220006C
:101BE8003909070000027800040F78001E02780007
:101BF800E00F5200140032002E029000E00F520055
:101C080006003A001E029000040242000400780018
:101C18002D09070000027800010037002E0290000D
:101C28009E027800C40A98001E027800440A9000B8
:101C3800E00F520004003A001E0078005009070027
:101C48000002EB00040F78001E0278000400780000
:101C58000080FA00000006000200FA00000F780079
:101C68001E027800440A9000040078004409070026
:101C78001E007800420907000080FA0000000600F4
:101C88000200FA0014E2800014027800E00F52000B
:101C980003003A000082EB00E4E588000700370003
:101CA80014E280003402900034029000040F78009F
:101CB8001E02780014029000E4E588000080FA0013
:101CC800000006000200FA0024E08000E402900010
:101CD800050F780024E0800025E08000B50A900018
:101CE800E4821200650298001E0278000400780061
:101CF8000080FA00000006000600FA0010079800AD
:101D0800210798001E029000040F7800F8060700CB
:101D18001E027800140378001E027800F40A90006E
:101D28001E0278000412900004AAB9000402780088
:101D3800840243001E027800150298001E027800F3
:101D48008002EB00650A98001E0278009402780071
:101D58001E027800250298001E02780014037800FD
:101D68001E027800740A90008402E9001E027800BE
:101D78000412900004AAB900040278008402430007
:101D88001E027800350298001E0278008082EB005F
:101D9800151298001E0278008082EB002512980028
:101DA8002E029000E00F52000F003A001E02780049
:101DB80044029000E00F5200130032009E027800A7
:101DC800688242000400780023FE070000027800C1
:101DD800E10F52000C003A00E4200200000000006D
:101DE80000000000080037009E0278006882420068
:101DF80004007800EE0607009E0278007282420016
:101E080004007800EA060700C30607001400200053
:101E1800040078000080FA00000006000C00FA00B8
:101E28003007980041079800224F98000002EB0005
:101E3800040F78003E029000E00F520025003200A7
:101E480060022000A008070000027800140798002C
:101E58001E029000E00F52001E003200BE029000E9
:101E68004E02900004AAB900040278000402E800B7
:101E7800240798002E0090009308070000027800BD
:101E8800840278001E029000050A78001E02900065
:101E980014027800E00F52000C0032001E0290007D
:101EA800BE029000750A98001E029000CE029000B3
:101EB80005129800110020001E0090008EFF0700F8
:101EC8001E029000040F7800020037001E009000E8
:101ED800AB0807001E027800040078000080FA00B2
:101EE800000006001200FA005007980061079800E9
:101EF80072079800030F98000002EB00040F7800A7
:101F08005E029000140798000100370000000000EE
:101F1800770607001E029000E40A90001E02900057
:101F2800740A9000848F5200030039000E0A900052
:101F3800E20F52001E003A000E099000EE009000D9
:101F48001E009000B70107000002780024079800DF
:101F58001E029000140A9000E00F52000B0032009D
:101F68001E0290007202420004007800BAFD0700C9
:101F780000027800E10F52000A003A00E420020053
:101F88000000000000000000060037002E0290004C
:101F9800E00F520003003200E420020000000000BD
:101FA800000000005C060700140020004500370010
:101FB8007E029000E00F520003003A005606070028
:101FC8000002EB003F0037001E027800E00F5200CD
:101FD80005003A00660247000400780010FE07007A
:101FE80014002000040F78004B06070048FC070087
:101FF8003F0607001E02900014129000E10F4200F5
:1020080003003A001E0290008002EB0015129800AF
:102018001E02900024129000E10F420003003A00D3
:102028001E0290008002EB00251298003A06070075
:10203800EE02470066024700850078000400780039
:1020480001FE070000027800E00F520019003A0074
:102058001E0090004D02070000027800E00F5200B9
:1020680010003200FE0290001E029000680242003A
:10207800850078000400780039FD07001E009000F4
:10208800E401070028FC070000027800E00F520076
:102098009EFF3A00E420020000000000000000005B
:1020A8009BFF37001E009000DA0107001EFC0700A6
:1020B80097FF37001E009000D60107001AFC0700A2
:1020C8000002EB00040078000080FA00000006001F
:1020D8000E00FA0030079800410798005207980050
:1020E800630798003E029000140798000002EB0076
:1020F800240798001E029000E40A90001E02900037
:10210800740A9000848F5200030039006E02900018
:10211800E20F52002B003A006E019000CE009000B2
:102128001E0090003F01070000027800E00F5200F7
:10213800060032005E029000E00F520003003200F9
:102148005E02900015002000050A78001E0290002B
:1021580024129000E10F420012003A001E02900083
:10216800140A9000E00F5200130032001E02900083
:10217800720242000400780037FD07000002780070
:10218800E00F52000C0032005E029000E00F520097
:10219800090032005E02900015002000050A780050
:1021A800050037001E029000241290008402E80007
:1021B8001E0290002512980014002000040F7800D9
:1021C800020037000002EB00040F78001E027800BE
:1021D800040078000080FA00000006001200FA00EF
:1021E800500798006107980072079800030F98003D
:1021F8000002EB00040F78005E02900014079800BC
:102208000100370000000000B90507001E02900019
:10221800640A9000E00F5200310032001E02900064
:10222800B402900025079800EE0090001E00900070
:10223800560107000E0A9000E00F520014003A0001
:102248001E029000640A90008402E9001E029000B9
:10225800650A98001E02900044029000E00F5200A8
:102268001C0032001E029000680242000400780040
:10227800F9FC070000027800E10F520015003A004F
:10228800E4200200000000000000000011003700F8
:102298001E029000AE029000350298001E029000C7
:1022A800140A9000E00F52000A0032001E0290004B
:1022B8007202420004007800E7FC07000002780080
:1022C800E00F520003003200E4200200000000008A
:1022D80000000000900507001400200045003700AA
:1022E8007E029000E00F520003003A008A050700C2
:1022F8000002EB003F0037001E027800E00F52009A
:1023080005003A00660247000400780044FD070013
:1023180014002000040F78007F0507007CFB0700ED
:10232800730507001E02900014129000E10F42008E
:1023380003003A001E0290008002EB00151298007C
:102348001E02900024129000E10F420003003A00A0
:102358001E0290008002EB00251298006E0507000F
:10236800EE02470066024700850078000400780006
:1023780035FD070000027800E00F520019003A000E
:102388001E0090006101070000027800E00F520073
:1023980010003200FE0290001E02900072024200FD
:1023A80085007800040078006DFC07001E0090008E
:1023B800180107005CFB070000027800E00F5200DC
:1023C80090FF3A00E4200200000000000000000036
:1023D8008DFF37001E0090000E01070052FB07001A
:1023E80089FF37001E0090000A0107004EFB070016
:1023F8000002EB00040078000080FA0000000600EC
:102408000C00FA003007980041079800520798001E
:102418003E029000140798000002EB002407980081
:102428001E029000640A9000E00F5200260032005D
:10243800CE0090001E009000D40007001E029000FD
:10244800640A90008402E9001E029000650A980060
:102458001E02900014129000E10F420012003A0090
:102468001E02900044029000E00F52001300320058
:102478001E029000680242000400780076FC070003
:1024880000027800E00F52000C0032005E0290005B
:10249800E00F5200090032005E0290001500200093
:1024A800050A7800050037001E02900014129000FB
:1024B8008402E8001E029000151298001400200003
:1024C800040F7800020037000002EB00040F7800C8
:1024D8001E027800040078000080FA000000060060
:1024E8000C00FA0040079800510798004E0290002F
:1024F800140798000002EB00240798001E029000C1
:10250800640A9000E00F52000C0032001E02900096
:10251800B402900035079800DE0090001E0090007D
:102528009A0007001E029000BE0290003502980033
:1025380014002000040F7800020037000002EB00AE
:10254800040F78001E027800040078000080FA006A
:10255800000006000400FA0010079800E4040700D1
:102568001E029000E40A9000050F7800EA040700B4
:102578001E027800040078000080FA0000000600BF
:102588000600FA00200798002E029000040F780039
:10259800D70407001E027800F40A90001E02780093
:1025A800640A90000482520014079800DA040700B5
:1025B8001E029000040078000080FA000000060067
:1025C8000400FA00100798001E029000E40A900028
:1025D800050F78001E027800040078000080FA00D9
:1025E800000006000400FA00100798001E02900080
:1025F800040F78001E02780014027800E00F5200E1
:10260800040032001E0278001402780004007800EA
:10261800DB0607001E007800D90607000080FA00D4
:10262800000006000800FA0010079800210798002B
:10263800320798000002EB00040F78001E02900099
:1026480004129000E00F5200470032003E02900052
:10265800E00F52001A003A001E0290008412900007
:102668001E0290002402900005017800AE00900040
:102678000400780022F807001E029000A4029000CF
:102688001E02900004129000848242001E029000F4
:10269800250298001E029000A40290001E029000DD
:1026A80014029000848F52002F0039001E029000FF
:1026B800940278001E029000250298002A00370034
:1026C8001E029000841290001E02900034029000B6
:1026D80005017800AE0090000400780008F80700B3
:1026E8001E029000B40290001E0290000412900096
:1026F8000402EA00848242001E029000350298001B
:102708001E029000B40290001E029000140278008D
:10271800848F5200080031001E029000940290003D
:102728001E029000041290000402EA008482420013
:102738001E029000350298003E029000E20F5200FF
:1027480009003A001E029000640A9000E00F52004F
:10275800050032001E029000640A90008402E9001D
:102768001E029000650A98001E029000640A9000FC
:102778008402E8001E029000650A98001E02780094
:10278800040078000080FA00000006000400FA0047
:10279800000F7800110798001E02780004129000BC
:1027A800E00F5200190032001E027800B4029000B7
:1027B8001E02780004129000848242001E027800F3
:1027C800350298001E027800B40290001E027800BC
:1027D80014029000848F5200040039001E02780011
:1027E800940278001E027800350298001E027800D4
:1027F800841290001E0278003402900005017800CF
:10280800840078001E009000BDF707000080FA00E1
:10281800000006000200FA00000F780034040700E8
:10282800110037001E027800140A9000E00F5200D1
:10283800120032009E027800728242000400780082
:1028480085FB070000027800E00F5200010032000B
:1028580034FC07001E027800241290008402E9006C
:102868001E027800251298001E027800241290009B
:10287800E00F5200EBFF3C000100370000000000B1
:102888001E0278008082EB002512980022040700BF
:1028980017040700110037001E0278004402900058
:1028A800E00F5200120032009E0278006882420057
:1028B8000400780068FB070000027800E00F52006F
:1028C8000100320017FC07001E0278001412900065
:1028D8008402E9001E027800151298001E02780092
:1028E80014129000E00F5200EBFF3C00010037008B
:1028F800000000001E0278008082EB00151298008C
:10290800050407000080FA00000006000400FA0031
:1029180010079800F60307001E029000640A900052
:10292800E00F520003003A0014002000040F780062
:10293800020037000002EB00040F7800F6030700DE
:102948001E027800040078000080FA0000000600EB
:102958000400FA00100798001E029000640A900014
:10296800E00F520003003A0014002000040F780022
:10297800020037000002EB00040F78001E02780006
:10298800040078000080FA00000006000400FA0045
:1029980010079800D60307001E029000E40A900072
:1029A8001E029000740A9000848F520003003A00BF
:1029B80014002000040F7800020037000002EB002A
:1029C800040F7800D40307001E0278000400780082
:1029D8000080FA00000006000400FA0010079800C2
:1029E8001E029000E40A90001E029000740A9000F3
:1029F800848F520003003A0014002000040F78006E
:102A0800020037000002EB00040F78001E02780075
:102A1800040078000080FA00000006000A00FA00AE
:102A28002007980031079800420798002E0290006E
:102A380014079800150280000402200005027200A5
:102A4800140288001E009000D0FF070000027800E2
:102A5800E00F5200140032004E029000E00F5200C6
:102A68000B0032001E0290006802420084007800C9
:102A78004E0090005501070015028000F4FD2F005C
:102A88000482620014028800C4FF2F002F00370060
:102A980015028000F4FD2F000482620014028800F1
:102AA8000002EB002900370015028000F4FD2F001A
:102AB80004826200140288001502800004022000CB
:102AC80005027200140288001E029000E40A9000B9
:102AD8001E029000740A9000848F52001400310086
:102AE8000001EB00BE0090001E009000CDFE070024
:102AF80014002000040F78001E029000140A9000B1
:102B0800E00F52000C0032001E02900072024200D8
:102B1800040078002902070000027800E00F520044
:102B280005003200B4FF2F00040F780002003700C0
:102B38000002EB00040F780015028000F4FD2F005E
:102B480004826200140288001E02780004007800E3
:102B58000080FA00000006000A00FA00200798002A
:102B680031079800420798002E0290001407980039
:102B78001502800004022000050272001402880079
:102B88001E029000640A9000E00F520014003A0000
:102B98004E029000E00F52000B0032001E0290001F
:102BA80072024200840078004E009000070107007E
:102BB80015028000F4FD2F000482620014028800D0
:102BC800C4FF2F004700370015028000F4FD2F00D6
:102BD80004826200140288000002EB004100370002
:102BE80015028000F4FD2F000482620014028800A0
:102BF80015028000040220000502720014028800F9
:102C08001E029000640A9000E00F52002E0032006D
:102C18001E029000B40290001E0290000412900060
:102C2800848242001E029000350298001E02900025
:102C3800B40290001E02900014029000848F52008B
:102C4800040039001E029000940278001E029000D1
:102C5800350298001E029000640A90008402E90080
:102C68001E029000650A98001E02900084129000CF
:102C78001E0290003402900005017800840078005C
:102C88003E0090009EF6070014002000040F780014
:102C98001E02900044029000E00F52000C00320027
:102CA8001E0290006802420004007800C301070079
:102CB80000027800E00F520005003200B4FF2F0038
:102CC800040F7800020037000002EB00040F7800C0
:102CD80015028000F4FD2F000482620014028800AF
:102CE8001E027800040078000080FA000000060048
:102CF8000800FA001007980021079800320798008A
:102D08001E029000040F78001E027800E40A90006A
:102D18001E027800740A9000848F5200140031005B
:102D28000001EB00AE0090001E0078003DFE070099
:102D38003E029000E00F52000D003A001E0278009B
:102D4800140A9000E00F5200090032009E02780039
:102D5800728242000400780098010700000278009F
:102D6800E00F52000200320014002000010037007A
:102D78003E029000040078000080FA00000006007F
:102D88000A00FA00200798003107980042079800C7
:102D98002E029000140798001E029000640A90000A
:102DA800E00F5200330032001E029000B40290007F
:102DB8001E02900004129000848242001E029000BD
:102DC800350298001E029000B40290001E02900086
:102DD80014029000848F5200040039001E029000F3
:102DE800940278001E029000350298001E0290009E
:102DF800640A90008402E9001E029000650A9800A7
:102E08001E029000841290001E029000340290006E
:102E180005017800840078003E00900038F607002D
:102E28004E02900014027800E00F52000E003A00A3
:102E38001E02900044029000E00F52000A00320087
:102E48001E02900068024200040078005B0107003F
:102E580000027800E00F5200030032004E0290009A
:102E680015002000050A780014002000040F7800DF
:102E7800020037000002EB00040F78001E02780001
:102E8800040078000080FA00000006000A00FA003A
:102E9800200798003107980042079800C0012000D9
:102EA8008904070000027800140798001E029000A9
:102EB800E00F52003F00320074E58000E00F52003E
:102EC80003003A001E02900074E588002001070004
:102ED8003E029000E10F520002003600140020006C
:102EE800340798001E0290008002EB00550A9800F3
:102EF8001E029000BE029000350A98001E02900043
:102F0800CE029000450A98001E029000AE02900082
:102F1800050A78001E0290000482E8000400780088
:102F2800BC0207001E0290006C02420004007800F8
:102F3800B80207001E0290009E0290004502980009
:102F48001E0290009E029000150A98003E02900012
:102F5800E20212001E029000650298001E02900014
:102F6800B40A900084E58000848F52000300360084
:102F78001E029000340A900084E588001E0290002A
:102F88000483E8001E029000340A90006A22B90007
:102F98008402780084C721000482420086007800F9
:102FA80004007800A202070014002000040F780033
:102FB800020037000082EB00040F78001E02780040
:102FC800040078000080FA00000006000600FA00FD
:102FD800100798002107980095E580001E029000D0
:102FE800048F420074E580000482E8000400780041
:102FF800DF02070074E580009E0278001502980041
:1030080094E580009E027800848F5200070031000A
:1030180074E580008482E80014E58000850078006B
:1030280004007800A00207000600370074E580005D
:103038008482E80004E580008500780004007800B8
:10304800990207002E029000E00F5200050032009E
:1030580074E580006C024200840078002E00900025
:10306800910207000080FA00000006000200FA0042
:1030780024003700150280000402200005027200B7
:103088001402880054E5800034029000040F780090
:103098009E0278006C82420004007800B4020700A7
:1030A80015028000F4FD2F000482620014028800DB
:1030B8001E82E80004007800AD0207001E027800B6
:1030C800B40A900084E58000848F52000300360023
:1030D8001E027800340A900084E588001E83E80008
:1030E8001E027800340A90006A22B900840278002F
:1030F80084C721000482420086007800040078001A
:103108004B02070024E58000E00F5200D9FF3A0087
:103118000080FA00000006000400FA0056F80700D4
:1031280000027800A5E5800005025200B4E5880099
:103138004800370094E580000402E80094E5880020
:10314800B4E580000402E900B4E5880094E5800055
:10315800E00F520038003A0004E58000040F7800C0
:1031680014E5800004E588001E02780014E5880054
:103178003200370004E580003402900034029000E9
:10318800140798001E0290009402900094E58000B5
:10319800848F52002E003E00150280000402200099
:1031A80005027200140288001E0290000482E800E2
:1031B800040078006E0207001E029000240A9000A6
:1031C800E00F5200040032001E0290006C02420020
:1031D800040078006602070015028000F4FD2F0045
:1031E80004826200140288001E029000B40A900053
:1031F80084E58000848F5200030036001E02900090
:10320800340A900084E588001E0290000483E800D8
:103218001E029000340A90006A22B90084027800E5
:1032280084C72100048242008600780004007800E8
:10323800FF010700010037000000000004E58000DE
:1032480014027800E00F5200CAFF3A00010037006C
:1032580000000000B4E58000E00F5200B5FF3A001E
:1032680094E58000A4E588000080FA0000000600CC
:103278000200FA007DFF0700A7FF070006003700DD
:1032880084E58000E00F52002E00320084E58000C3
:103298000402E90084E5880084E580006A22B90018
:1032A8008402780084C72100048242001402780056
:1032B800E00F5200F2FF320084E580006A22B90074
:1032C8008402780084C72100048F42001E0278001F
:1032D80014029000940290001E02780015029800D3
:1032E8001E027800940290001E03780064024300D6
:1032F800848F520005003A001E02780014029000E4
:10330800940290001E027800150298001E027800B0
:10331800140290003402900074E5880074E580007F
:103328001403780074E58000C40A900074E58000F6
:103338008500780004007800060001000000000005
:1033480001003700000000000080FA0000000600BD
:103358000200FA000002EB00040F780008003700B2
:103368001E0278006A22B9008402780084C721000E
:1033780004824200040078008D0107001E0FE80057
:103388001E027800E10F5200F5FF3600C0C8210088
:103398008701070060C921008501070040CA210094
:1033A80083010700C4C8210004E5880064C921001E
:1033B80014E588000080FA00000006000600FA0004
:1033C800200798002E0290003402900034029000EA
:1033D800140798001E0290006C0242000400780056
:1033E800E30107001E0290006C024200840078008E
:1033F80040CA21008E0107001E029000B40A900006
:1034080074E58000340A9000848F5200030039006C
:1034180014002000040F7800020037000002EB00BF
:10342800040F78001E027800040078000080FA007B
:10343800000006000000FA0014002000341788007D
:103448003517800004002F00048262000500220066
:10345800850F52001600320005002200850F520029
:1034680004003E0005002100850F520008003200CC
:103478002500370005002400850F52001400320093
:1034880005002800850F5200190032001E00370081
:10349800000000003517800004002100048262004B
:1034A800E00F5200FBFF3A00340020007F00370095
:1034B800000000003517800004002200048262002A
:1034C800E00F5200FBFF3A0064002000770037004D
:1034D8000000000035178000040024000482620008
:1034E800E00F5200FBFF3A00940020006F00370005
:1034F8000000000034178000E00F5200FDFF350087
:10350800A400200069003700240020003417880038
:103518003517800004002F00048262000500220095
:10352800850F52001600320005002200850F520058
:1035380004003E0005002100850F520008003200FB
:103548002500370005002400850F520014003200C2
:1035580005002800850F5200190032001E003700B0
:10356800000000003517800004002100048262007A
:10357800E00F5200FBFF3A00240020004B00370008
:103588000000000035178000040022000482620059
:10359800E00F5200FBFF3A005400200043003700C0
:1035A8000000000035178000040024000482620037
:1035B800E00F5200FBFF3A00840020003B00370078
:1035C8000000000034178000E00F5200FDFF3500B6
:1035D8000002EB0035003700440020003417880053
:1035E8003517800004002F000482620005002200C5
:1035F800850F52001600320005002200850F520088
:1036080004003E0005002100850F5200080032002A
:103618002500370005002400850F520014003200F1
:1036280005002800850F5200190032001E003700DF
:1036380000000000351780000400210004826200A9
:10364800E00F5200FBFF3A0014002000170037007B
:103658000000000035178000040022000482620088
:10366800E00F5200FBFF3A00440020000F00370033
:103678000000000035178000040024000482620066
:10368800E00F5200FBFF3A007400200007003700EB
:103698000000000034178000E00F5200FDFF3500E5
:1036A800B400200001003700C400200004007800A6
:1036B8000080FA00000006000400FA0010079800D5
:1036C80084FF2F0024178800010037000000000045
:1036D80058FF070000027800040F78001E027800E7
:1036E800EC0F5200F9FF3200C4E580008001EB00C6
:1036F8000081EB008E00780004007800F9F90700DB
:10370800F3FF37002A00FA002017980031179800B5
:103718004217980064024700253B28000F00090063
:10372800351A78003E129000140798002E12900067
:103738009E029000050A78002E1290000482E8008C
:10374800241798002E1290008002EB00050A7800DA
:103758002E1290000482E800241798002E12900080
:103768008002EB00050A78002E1290000482E8001F
:1037780024179800CE1290002E129000050A7800A7
:103788002E1290000482E800241798000002EB0033
:10379800040F78000A0037001E0278000402420075
:1037A80004024700A40290002E129000050A780037
:1037B8002E1290000482E800241798001E0FE800DB
:1037C8001E027800EF0F5200F3FF3600250280003A
:1037D8002E129000050A78002E1290000482E8004C
:1037E8002417980044032000144278008482FB00C8
:1037F8002E129000050A78002E1290000482E8002C
:10380800241798002E1290008002EB00050A780019
:103818002E1290000482E800241798002E129000BF
:10382800040078000080FA00000006000000FA009A
:103838001900070020E08000900778004F0078000A
:10384800F0E588003400F9004400F9003200F9007E
:103858003600F9004F0778004F06BE004F05BE003E
:103868004F04BE004F03BE004F02BE004F01BE0012
:103878004F00BE004200F9000000060014002000BE
:10388800040078000080FA00000006000000FA003A
:103898000080FA00000006000400FA00341F20002F
:1038A80005002000048FBE000002EB0024088800F9
:1038B8000002EB00040888001E0278001408880043
:1038C8002405800004C0A00004D0A10004E0A100E9
:1038D800240588008460A9009460A8000481A800D9
:1038E80004A1A90005E1A8000080FA000000060074
:1038F8000000FA0015028000040220000502720090
:1039080014028800F4E580000402E800F4E5880069
:103918000080FA00000006000000FA00F4E58000CC
:103928000402E900F4E58800F4E58000E00F5200A5
:1039380004003A0015028000F4FD2F0004826200A2
:10394800140288000080FA00000006003600F80023
:10395800809FBE00829FBE00849FBE00869FBE00DF
:103968003400F80000002000A00188000000FA00E0
:103978008460A90057F6070000027800E00F5200A3
:1039880003003200E42002000000000000000000F4
:103998000080FA003400F9004F03BE004F02BE0059
:1039A8004F01BE004F00BE003600F900004006007F
:1039B8000200FA00000F78009E027800648242003C
:1039C800840278001E027800150298001E02780012
:1039D8008082EB00250298009E02780064824200F3
:1039E800840278001E027800350298009E02780052
:1039F80064824200840278001E0278004502980022
:103A08001E0278008002EB00050A78000080FA00A8
:103A1800000006000200FA00000F78001E0278007D
:103A28008002EB00450298000080FA0000000600C2
:103A38000600FA0010079800210798001E0290005F
:103A480094029000050F78002E0290009E027800E4
:103A5800150298001E027800A40290002E02900021
:103A6800250298001E02780024029000AE02900001
:103A7800150298001E027800AE02900025029800F8
:103A88002E0290009E029000450298001E029000AF
:103A9800140278008402E8001E029000050A7800EB
:103AA8000080FA00000006000800FA0020079800CD
:103AB800310798003E02900094027800150798009C
:103AC8001E029000E10F420004003A002E0290000E
:103AD800C4029000050F78000D0037002E029000F8
:103AE80064024200040F7800030037001E027800C9
:103AF80094029000050F78001E02780014029000CE
:103B0800940278001E029000848F5200F7FF36005E
:103B18001E027800940290003E0290001502980060
:103B28003E02900014029000BE0290002502980008
:103B38003E0290009E027800250298001E0278003E
:103B4800BE029000150298003E029000AE0290005E
:103B5800450298002E029000140278008402E800C2
:103B68002E029000050A78000080FA000000060086
:103B78000400FA00100798001E029000440290000A
:103B8800040F78001E029000140290009E0290001C
:103B9800A5029000250298001E02900024029000C1
:103BA8009E02900095029000150298001E0278006F
:103BB800940290001E029000848F520004003A0084
:103BC8001E029000A40290001E02780015029800C0
:103BD8001E0290008002EB00450298001E02780049
:103BE800140278008402E9001E027800050A7800B1
:103BF8001E02780014027800040078000080FA00A1
:103C0800000006000400FA00100798000002EB000C
:103C1800C41688000002EB00D416880001003700A3
:103C280000000000C4E580008001EB000081EB008B
:103C38008E0078000400780068F907001E027800FA
:103C480005002000B600200007002000860F520063
:103C5800878F5A00F2FF3E000460010058003700C9
:103C68000A00370011003700180037001F0037001E
:103C7800260037002E003700360037003E00370098
:103C8800460037005600370058003700D416800029
:103C980062026200E00F520002003A00DA22A80035
:103CA80001003700DA22A90053003700D41680003B
:103CB80064026200E00F520002003A00DA42A800F3
:103CC80001003700DA42A9004B003700D416800003
:103CD80068026200E00F520002003A00DA62A800AF
:103CE80001003700DA62A90043003700D4168000CB
:103CF80070026200E00F520002003A00DA82A80067
:103D080001003700DA82A9003B003700D516800091
:103D18000402200004826200E00F520002003A0010
:103D2800DAA2A80001003700DAA2A90032003700A1
:103D3800D51680000404200004826200E00F5200BF
:103D480002003A00DAC2A80001003700DAC2A9006E
:103D580029003700D516800004082000048262007C
:103D6800E00F520002003A00DAE2A8000100370032
:103D7800DAE2A90020003700D516800004102000E0
:103D880004826200E00F520002003A00DB02A80041
:103D980001003700DB02A90017003700D5168000A4
:103DA8000420200004826200E00F520002003A0062
:103DB800DB22A80001003700DB22A9000E00370033
:103DC800D416800061026200E00F520002003A003F
:103DD800DA02A80001003700DA02A900060037005D
:103DE8000082EB00D4168800030037000002EB00C5
:103DF800D4168800000000008AFF37000000FA008F
:103E0800D6F107000000EB00DCF10700920120006A
:103E1800014020000000280018F207000080FA0086
:103E2800000006001000FA00700798000002EB007E
:103E3800140798000002EB006407980014002000A3
:103E4800040F780007003700000000000500370065
:103E580000000000030037000000000001003700E8
:103E680000000000FEF1070000427800E04F520019
:103E7800F5FF320015F207000002780024079800C9
:103E88002E029000ED0F520015003200AE02900095
:103E9800F4022000848F5200EDFF3600AE0290003D
:103EA80094032000848F5200EBFF3E001E02900016
:103EB800E40F5200EAFF3C002E0290000442780012
:103EC800660347009E02900085024300844A7800FA
:103ED8001E0290000402E80014079800E1FF370072
:103EE8001E0290000402E90014079800140037002D
:103EF800E60247001E029000048242001442780045
:103F08000482FB000403B100840278001E027800DA
:103F180004AAB900840278006E029000048242006C
:103F2800640798001E0290000402E9001407980034
:103F38001E0278006A22B90004027800040F780093
:103F48001E029000E00F5200E9FF3D00D4E580001A
:103F5800EC0247008001EB000081EB00850078004F
:103F680004007800DFF70700B0FF37000400FA000C
:103F780010079800D4E580008001EB000081EB0079
:103F88008E0078000400780094F807001E0278007C
:103F9800040C8800F7FF37000400FA00000F7800CF
:103FA800110798003900070094FF07000041EB0053
:103FB800210020005000200098F707000002780038
:103FC800C4E588000041EB0021002000100020001B
:103FD80092F7070000027800D4E588008003EB0020
:103FE8000003EB008002EB00140020008001EB00CE
:103FF800620920002139280000B62100EAF10700F3
:104008008003EB000003EB008002EB0014002000AB
:104018008001EB0062092000E139280060E02100FE
:10402800E1F107008003EB000003EB008002EB00E6
:10403800140020008001EB0062092000413A2800AA
:1040480060F12100D8F107008003EB000003EB00CA
:104058008002EB00140020008001EB0062092000C0
:10406800A13A2800A0FB2100CFF1070004F40700C3
:104078000002EB00040078000080FA00000006004F
:104088000000FA000080FA00000006000000FA00B4
:104098000002EB00240C8800F4FF2700140C8800B1
:1040A800F4FF2300040C880064002000240C88001E
:1040B8000082EB006408880094E0A90011E1A800E0
:1040C8000080FA00000006000400FA0010079800BB
:1040D8000002EB00040F78001E02900061026200EB
:1040E80004427800E04F5200050032009E02900022
:1040F800E4FF2F00048262000482E800140798009D
:1041080003F4070014E08000E00F520004003A00B6
:1041180025802000E4FF2F000482620014E088005C
:1041280005E080001E02900084824200D43F2100F6
:10413800848F52000D003E0005E080001E029000B2
:104148008482420004E08000848F52000700360019
:1041580015E0800004E08000048F420005E0800044
:104168001E0290000482420004E08800EEF307007B
:104178001E027800040078000080FA0000000600A3
:104188000200FA00000F78000080FA000000060024
:104198000000FA000002EB0004E088000080FA004A
:1041A800000006000000FA0004E08000E53F21005E
:1041B80004825200040078000080FA000000060023
:1041C8004200F800801F78000002200010028800DA
:1041D800811F7800829FBE00849FBE00869FBE001C
:1041E800889FBE008A9FBE008C9FBE008E1F7800ED
:1041F8003600F8003200F8004400F8003400F800F7
:10420800F0E58000801F780020E080000F0878002B
:10421800540A02000000000020E0800090077800A7
:104228004F007800F0E588003400F9004400F900F8
:104238003200F9003600F9004F0778004F06BE003B
:104248004F05BE004F04BE004F03BE004F02BE0024
:104258004F01BE004F00BE004200F90000000600FA
:10426800B81C00000400000000000000781C0000DA
:104278004000000000000000041C00007400000062
:1042880000000000BC1C000002000000020000004A
:10429800FFFF0000BE1C000002000000020000003A
:1042A800EF000000000800000414000000000000F7
:0442B8000000000002
:020000040002F8
:08AFF800BEFA00007F3F0000DB
:00000001FF
